S12300008028030BCC15630BCE15CC3BCB380C00AA150311AB150F306E280E306E280F3C57
S1230020820B8115A2190A0B221203305F28A21D1121D6202C333428000B271203312A286F
S1230040020B261203312A28BF0B251203312A28200B241203343828A4190335A519033567
S1230060A6190335A7193828A41DA51DA61DA71D2C334128000B3017033141288B21862151
S12300802C3F863153282C345428AF1DB01D8B212C3DAC3D2C3EAC3E2C3FAC38B21DA81D15
S12300A0A91D2C3854282C3C86355E282C375E28FF0B311203345F28B1195F28B11D2C337B
S12300C068282F16301203306E282F16B0156E2830162F1203306E282F16B0154B307B2824
S12300E0CB307B284B3CCE20A319030B231203307B28A31DD3212B118315AA112A110D0089
S1230100CE219221C80BB1152C339628000B271203319428020B261203319428BF0B251219
S123012003319428200B241203349A28C80B3112033084288E3F0E3CCB3CCC3F083CFF0B05
S12301408D15FF0B8B15FF0BC6150D3CF90B8D1E8F3C8E38090B89170B0000000000891D7C
S12301608E3C8F3CCE2192218635BB28060BAF15060BB015BD28AF1DB01D0A0B9415000BB4
S12301809515000B9615000BA2212D3886358428010B301203309A2884280C002D34D1280C
S12301A0D5288621AC32D52881210C00B319320B33120330FD28B31D2C30E928A11DAC368B
S12301C0A119211CA11521130330AC3E0334AC3AFD282C33FC28020B30120330F128AC3AD7
S12301E0FD28A11DAC36A119211CA11521130330AC3E0334AC3AFD28AC3E2C301029060B66
S12302003012033010298C0B291203310929A00B281203340F29A8190335A9191029AC3AC6
S12302200C002C301B29B51DB61DB71DB81DB91DBA1DBB1D802986210D3C4638A01D06342D
S1230240A0192016010803312729BB1D2E29010BBB15A41DA51DA61DA71DB11D38163B10A2
S1230260033133293729B71D3B16B8158029030B371203343D29B71980293B1635100331B8
S123028042296529000B3B1703314829B91D4A29B61DBA193A16020803317E29A01D2C371B
S12302A0A019201CA015201303302C3F03342C3B2C335E298F21320BB31563298B212C3DE5
S12302C0AC3D2C3EAC3EBA1D7E29000B3B1703317929000B3A1703357E291E0B391203304A
S12302E07329BA1D7E29FF0B391203347E29B9197E29FF0B361203347E29B6193B16B5151A
S12303000C00063C463C0639463D0C00070B8D17070BC6170C000D3A0B3A463A0C00463EEE
S1230320063E0C000D3C4638463AC63AC639FA220120010B9415000B9515000B9615000BBB
S1230340A2210C009B1516169A151516991514169815181619171A171B170335CD29130B82
S12303609C15020B9D151C169E151D169F15FF0B9C1F03309D1B1E161F170335C129000001
S1230380B329FF0B981FFF0B0330991FFF0B03309A1FFF0B03309B1FA9290C008E3F8E227F
S12303A086228E3B0C000838341697150F0B17120334422A010B8A15E10B171F03348A19F9
S12303C08215F029212AF729262AFE292B2A052A302A0C2A352A132A3A2A1A2A3F2AF029AD
S12303E0E10B881E1E0B8817010BB415422AE10B881E1C0B8817030BB415422AE10B881E31
S12304001A0B8817050BB415422AE10B881E180B8817070BB415422AE10B881E160B8817E2
S1230420090BB415422AE10B881E140B88170B0BB415422AE10B881E120B88170D0BB415A5
S1230440422A020BB415060BAE15422A040BB415050BAE15422A060BB415040BAE15422AE7
S1230460080BB415030BAE15422A0A0BB415020BAE15422A0C0BB415010BAE15422A0E0B11
S1230480B415AE1D341602080331472A642A3416040803314C2A642A341606080331512AA8
S12304A0642A341608080331562A642A34160A0803315B2A642A34160C080331602A642AC1
S12304C034160E080331852A8832752A2E162F120330852A000B2E170335732A2F169715FF
S12304E0171BAF15852AAF1D852A2E162F120334852A2E16060803317E2A832A2F169715A1
S12305001719AF15852A060BAF150C00861DC61DFF0B8D15FF0B8B158C1D0C003F0B8415DF
S12305202F0BBF15841B801DBF1A922ABF1D0C00100A000A060A030A2E0A000A010A000A58
S1230540070A030A2F0A000A010A000A080A030A300A000A010A000A000A030A240A000A5A
S1230560040A000A090A030A310A000A010A000A0A0A030A320A000A010A000A040A030A4E
S1230580280A000A020A000A0B0A030A330A000A010A000A0C0A030A340A000A010A000A07
S12305A00D0A030A350A000A010A000A0E0A030A360A000A010A000A0F0A030A370A000AC0
S12305C0010A000A100A030A380A000A010A000A110A030A390A000A010A000A120A030AC7
S12305E03A0A000A010A000A130A030A3B0A000A010A000A050BC115820B81150E380C00AB
S1230600000A000A000A000A000A000A000A000A000A000A000A000A000A000A000A000A36
S10B0620000A000A000A000AA6
S3050000806218
S903FFFFFE
