S12300008828030BCC15630BCE15CC3BCB380C00AB150311AC150F307D280E307D280F3C2F
S1230020820B8115A2190A0B221203306D28A21D1921DE202D333428000B281203312A284F
S1230040020B271203312A28BF0B261203312A28200B251203343828A5190335A619033562
S1230060A7190335A8193828A51DA61DA71DA81D2D334128000B31170331412893218E2139
S12300802D3F86315A28A31DA4190A0B241203306228A41D2D346228B01DB11D93212D3DCD
S12300A0AD3D2D3EAD3E2D3FAD38B31DA91DAA1D2D386228A41DA319640B23120330622881
S12300C0A31D2D3C86356C282D376C28FF0B321203346D28B2196D28B21DDB212D33772868
S12300E03016311203307D283016B1157D283116301203307D283016B1154B308328CB305C
S123010083284B3CD6202C118315AB112B110D00D6219A21C80BB2152D339E28000B281222
S123012003319C28020B271203319C28BF0B261203319C28200B25120334A228C80B321211
S123014003308C288E3F0E3CCB3CCC3F083CFF0B8D15FF0B8B15FF0BC6150D3CF90B8D1E14
S12301608F3C8E38090B89170B0000000000891D8E3C8F3CD6219A218635C328060BB015C2
S1230180060BB115C528B01DB11D640B9415000B9515000B9615000BAA212E3886358C28CE
S12301A0010B31120330A2288C280C002E34D928DD288E21AD32DD2889210C00B419320B74
S12301C0341203300529B41D2D30F128A11DAD36A119211CA11521130330AD3E0334AD3A6F
S12301E005292D330429020B31120330F928AD3A0529A11DAD36A119211CA11521130330D2
S1230200AD3E0334AD3A0529AD3E2D301829060B3112033018298C0B2A1203311129A00B66
S1230220291203341729A9190335AA191829AD3A0C002D302329B61DB71DB81DB91DBA1D45
S1230240BB1DBC1D88298E210D3C4638A01D0634A0192016010803312F29BC1D3629010B03
S1230260BC15A51DA61DA71DA81DB21D39163C1003313B293F29B81D3C16B9158829030B7D
S1230280381203344529B81988293C16361003314A295329000B3C1703315029BA1D86299D
S12302A0B71DBB198629000B3C1703318129000B3B17033586291E0B3A1203307B293B16C6
S12302C00108033164297929A01D2D37A019201CA015201303302D3F03342D3B2D33742975
S12302E09721320BB415792993212D3DAD3D2D3EAD3EBB1D8629FF0B3A1203348629BA19A6
S12303008629FF0B371203348629B7193C16B6150C00063C463C0639463D0C00070B8D17B0
S1230320070BC6170C000D3A0B3A463A0C00463E063E0C000D3C4638463AC63AC639022367
S12303400120010B9415000B9515000B9615000BAA210C009B1516169A15151699151416E8
S12303609815181619171A171B170335D529130B9C15020B9D151C169E151D169F15FF0B71
S12303809C1F03309D1B1E161F170335C9290000BB29FF0B981FFF0B0330991FFF0B033048
S12303A09A1FFF0B03309B1FB1290C008E3F96228E228E3B0C000838351697150F0B17121F
S12303C003344A2A010B8A15E90B171F03348A198215F829292AFF292E2A062A332A0D2A70
S12303E0382A142A3D2A1B2A422A222A472AF829E10B881E1E0B8817010BB5154A2AE10BD3
S1230400881E1C0B8817030BB5154A2AE10B881E1A0B8817050BB5154A2AE10B881E180BC7
S12304208817070BB5154A2AE10B881E160B8817090BB5154A2AE10B881E140B88170B0BBF
S1230440B5154A2AE10B881E120B88170D0BB5154A2A020BB515060BAF154A2A040BB515BD
S1230460050BAF154A2A060BB515040BAF154A2A080BB515030BAF154A2A0A0BB515020BFF
S1230480AF154A2A0C0BB515010BAF154A2A0E0BB515AF1D3516020803314F2A6C2A351669
S12304A004080331542A6C2A351606080331592A6C2A3516080803315E2A6C2A35160A0834
S12304C00331632A6C2A35160C080331682A6C2A35160E0803318D2A88327D2A2F163012D2
S12304E003308D2A000B2F1703357B2A30169715171BB0158D2AB01D8D2A2F1630120334FE
S12305008D2A2F1606080331862A8B2A301697151719B0158D2A060BB0150C00861DC61D2E
S1230520FF0B8D15FF0B8B158C1D0C003F0B84152F0BBF15841B801DBF1A9A2ABF1D0C00FA
S1230540100A000A0E0A030A2F0A000A010A000A0F0A030A300A000A010A000A100A030A50
S1230560310A000A010A000A080A030A250A000A040A000A110A030A320A000A010A000A2A
S1230580120A030A330A000A010A000A0C0A030A290A000A020A000A130A030A340A000AEA
S12305A0010A000A140A030A350A000A010A000A150A030A360A000A010A000A160A030AE1
S12305C0370A000A010A000A170A030A380A000A010A000A180A030A390A000A010A000A97
S12305E0190A030A3A0A000A010A000A1A0A030A3B0A000A010A000A1B0A030A3C0A000A4D
S1230600010A000A050BC115820B81150E380C00000A000A000A000A000A000A000A000A16
S11B0620000A000A000A000A000A000A000A000A000A000A000A000A46
S3050000806218
S903FFFFFE
