S12300008828030BCC15630BCE15CC3BCB380C00AD150311AE150F307D280E307D280F3C2B
S1230020820B8115A4190A0B241203306D28A41DE32102212F333428000B2A1203312A2856
S1230040020B291203312A28BF0B281203312A28200B271203343828A7190335A819033558
S1230060A9190335AA193828A71DA81DA91DAA1D2F334128000B3317033141286C22672275
S12300802F3F86315A28A51DA6190A0B261203306228A61D2F346228B21DB31D6C222F3DE1
S12300A0AF3D2F3EAF3E2F3FAF38B51DAB1DAC1D2F386228A61DA519640B25120330622869
S12300C0A51D2F3C86356C282F376C28FF0B341203346D28B4196D28B41DB4222F33772880
S12300E03216331203307D283216B3157D283316321203307D283216B3154B308328CB304C
S123010083284B3CD6202E118315AD112D110D00AF227322C80BB4152F339E28000B2A1262
S123012003319C28020B291203319C28BF0B281203319C28200B27120334A228C80B341209
S123014003308C288E3F0E3CCB3CCC3F083CFF0B8D15FF0B8B15FF0BC6150D3CF90B8D1E14
S12301608F3C8E38090B89170B0000000000891D8E3C8F3CAF2273228635C328060BB2150C
S1230180060BB315C528B21DB31D640B9415000B9515000B9615000B8322303886358C28EC
S12301A0010B33120330A2288C280C003034D928012967222316A215040B22120334012981
S12301C0000B8A15E70B221F03348A198215EB28F128F728FD282F31EE286222010BA3159F
S12301E00129AF31F4285D22020BA31501292F32FA285822030BA3150129AF3200295322FB
S1230200A31D0C00B619320B36120330CD29B61D2F309529AF304629030B3312033412298E
S1230220AF3CCD29030B331203301E29000B351703311E292F39010BB515CD29040B3312B2
S123024003302A293516010803312A29AF39020BB515CD29050B3312033036293516020848
S1230260033136292F3A030BB515CD29060B3312033042293516030803314229AF3A040BCF
S1230280B515CD29AF3C320BB615CD293316A115070B211203348529010B8A15530B211F3F
S12302A003348A1982157B297B297B29702965295A295A29A11DAF36A119211CA11521132C
S12302C00330AF3E0334AF3A8529A11D2F36A119211CA115211303302F3E03342F3A85293A
S12302E0A11DAF35A119211CA11521130330AF3D0334AF398529A11D2F35A119211CA115BC
S1230300211303302F3D03342F39030B331203308A292F39040B331203308F29AF39050B8F
S123032033120330CD292F3ACD292F33C929050B33120330A029AF3A2F3AAF392F39CD29AF
S1230340040B33120330A929AF3E2F3AAF392F39CD29030B33120330B229AF3E2F3EAF3901
S12303602F39CD29020B33120330BB29AF3E2F3EAF3D2F39CD29AF3E2F3EAF3DA11D2F35A6
S1230380A119211CA115211303302F3D03342F39CD292F3DAF3D2F3EAF3E2F30E229AF3445
S12303A0E229060B33120330E2298C0B2C120331DB29A00B2B120334E129AB190335AC19A3
S12303C0E229AF3A0C002F30ED29B81DB91DBA1DBB1DBC1DBD1DBE1D522A67220D3C4638F0
S12303E0A01D0634A019201601080331F929BE1D002A010BBE15A71DA81DA91DAA1DB41DE9
S12304003B163E100331052A092ABA1D3E16BB15522A030B3A1203340F2ABA19522A3E16BF
S123042038100331142A1D2A000B3E1703311A2ABC1D502AB91DBD19502A000B3E170331D2
S12304404B2A000B3D170335502A1E0B3C120330452A3D16010803312E2A432AA01D2F3781
S1230460A019201CA015201303302F3F03342F3B2F333E2A7022320BB615432A6C222F3D8E
S1230480AF3D2F3EAF3EBD1D502AFF0B3C120334502ABC19502AFF0B39120334502AB9198E
S12304A03E16B8150C00063C463C0639463D0C00063D463D0638463C0C00863CC63C0638E5
S12304C0463C0C00063C463C8638C63C0C00070B8D17070BC6170C000D3A0B3A463A0C0031
S12304E0463E063E0C000D3C4638463AC63AC639DB230120010B9415000B9515000B96159F
S1230500000B83220C009B1516169A151516991514169815181619171A171B170335AE2A0F
S1230520130B9C15020B9D151C169E151D169F15FF0B9C1F03309D1B1E161F170335A22A3F
S12305400000942AFF0B981FFF0B0330991FFF0B03309A1FFF0B03309B1F8A2A0C008E3FA9
S12305606F2367238E3B0C000838371697150F0B17120334232B020B8A15C20B171F03349F
S12305808A198215D12A022BD82A072BDF2A0C2BE62A112BED2A162BF42A1B2BFB2A202B09
S12305A0D12AE10B881E1E0B8817010BB715232BE10B881E1C0B8817030BB715232BE10B50
S12305C0881E1A0B8817050BB715232BE10B881E180B8817070BB715232BE10B881E160B50
S12305E08817090BB715232BE10B881E140B88170B0BB715232BE10B881E120B88170D0B44
S1230600B715232B020BB715060BB115232B040BB715050BB115232B060BB715040BB1150D
S1230620232B080BB715030BB115232B0A0BB715020BB115232B0C0BB715010BB115232B62
S12306400E0BB715B11D371602080331282B452B3716040803312D2B452B371606080331B1
S1230660322B452B371608080331372B452B37160A0803313C2B452B37160C080331412BDB
S1230680452B37160E080331662B8832562B311632120330662B000B31170335542B3216E2
S12306A09715171BB215662BB21D662B311632120334662B3116060803315F2B642B321663
S12306C097151719B215662B060BB2150C00861DC61DFF0B8D15FF0B8B158C1D0C003F0B23
S12306E084152F0BBF15841B801DBF1A732BBF1D0C00100A000AE70A030A310A000A010A42
S1230700000AE80A030A320A000A010A000AE90A030A330A000A010A000AE10A030A270AEC
S1230720000A040A000AEA0A030A340A000A010A000AEB0A030A350A000A010A000AE50AE6
S1230740030A2B0A000A020A000AEC0A030A360A000A010A000AED0A030A370A000A010A77
S1230760000AEE0A030A380A000A010A000AEF0A030A390A000A010A000AF00A030A3A0A52
S1230780000A010A000AF10A030A3B0A000A010A000AF20A030A3C0A000A010A000AF30A5F
S12307A0030A3D0A000A010A000AF40A030A3E0A000A010A000A050BC115820B81150E3801
S12307C00C00000A000A000A000A000A000A000A000A000A000A000A000A000A000A000A73
S10D07E0000A000A000A000A000AD9
S3050000806218
S903FFFFFE
