S12300008028030BCC15630BCE15CC3BCB380C00AA150311AB150F306E280E306E280F3C57
S1230020820B8115A2190A0B221203305F28A21DF120D6202C333428000B271203312A2890
S1230040020B261203312A28BF0B251203312A28200B241203343828A4190335A519033567
S1230060A6190335A7193828A41DA51DA61DA71D2C334128000B3017033141286B21662191
S12300802C3F863153282C345428AF1DB01D6B212C3DAC3D2C3EAC3E2C3FAC38B21DA81D35
S12300A0A91D2C3854282C3C86355E282C375E28FF0B311203345F28B1195F28B11D2C337B
S12300C068282F16301203306E282F16B0156E2830162F1203306E282F16B0154B307B2824
S12300E0CB307B284B3CCE20A319030B231203307B28A31DB3212B118315AA112A110D00A9
S1230100AE217221C80BB1152C339628000B271203319428020B261203319428BF0B251259
S123012003319428200B241203349A28C80B3112033084288E3F0E3CCB3CCC3F083CFF0B05
S12301408D15FF0B8B15FF0BC6150D3CF90B8D1E8F3C8E38090B89170B0000000000891D7C
S12301608E3C8F3CAE2172218635BB28060BAF15060BB015BD28AF1DB01D0A0B9415000BF4
S12301809515000B9615000B82212D3886358428010B301203309A2884280C002D34D1282C
S12301A0D5286621AC32D52861210C00B319320B33120330F028B31D2C33EF28020B301220
S12301C00330E428AC3AF028A11DAC36A119211CA11521130330AC3E0334AC3AF028AC3E21
S12301E00C002C30FB28B51DB61DB71DB81DB91DBA1DBB1D602966210D3C4638A01D0634CF
S1230200A0192016010803310729BB1D0E29010BBB15A41DA51DA61DA71DB11D38163B1022
S1230220033113291729B71D3B16B8156029030B371203341D29B71960293B163510033198
S123024022294529000B3B1703312829B91D2A29B61DBA193A16020803315E29A01D2C37FB
S1230260A019201CA015201303302C3F03342C3B2C333E296F21320BB31543296B212C3DA5
S1230280AC3D2C3EAC3EBA1D5E29000B3B1703315929000B3A1703355E291E0B39120330EA
S12302A05329BA1D5E29FF0B391203345E29B9195E29FF0B361203345E29B6193B16B515FA
S12302C00C00063C463C0639463D0C00070B8D17070BC6170C000D3A0B3A463A0C00463E2F
S12302E0063E0C000D3C4638463AC63AC639DA220120010B9415000B9515000B9615000B1C
S123030082210C009B1516169A151516991514169815181619171A171B170335AD29130B02
S12303209C15020B9D151C169E151D169F15FF0B9C1F03309D1B1E161F170335A129000061
S12303409329FF0B981FFF0B0330991FFF0B03309A1FFF0B03309B1F89290C008E3F6E221F
S123036066228E3B0C000838341697150F0B17120334222A010B8A15C10B171F03348A1999
S12303808215D029012AD729062ADE290B2AE529102AEC29152AF3291A2AFA291F2AD029D1
S12303A0E10B881E1E0B8817010BB415222AE10B881E1C0B8817030BB415222AE10B881EB1
S12303C01A0B8817050BB415222AE10B881E180B8817070BB415222AE10B881E160B881763
S12303E0090BB415222AE10B881E140B88170B0BB415222AE10B881E120B88170D0BB41526
S1230400222A020BB415060BAE15222A040BB415050BAE15222A060BB415040BAE15222AA7
S1230420080BB415030BAE15222A0A0BB415020BAE15222A0C0BB415010BAE15222A0E0BB1
S1230440B415AE1D341602080331272A442A3416040803312C2A442A341606080331312A88
S1230460442A341608080331362A442A34160A0803313B2A442A34160C080331402A442AE1
S123048034160E080331652A8832552A2E162F120330652A000B2E170335532A2F169715BF
S12304A0171BAF15652AAF1D652A2E162F120334652A2E16060803315E2A632A2F16971581
S12304C01719AF15652A060BAF150C00861DC61DFF0B8D15FF0B8B158C1D0C003F0B841540
S12304E02F0BBF15841B801DBF1A722ABF1D0C00100A000AE60A020A2E0A000A010A000ADA
S1230500E70A020A2F0A000A010A000AE80A020A300A000A010A000AE00A020A240A000AFD
S1230520040A000AE90A020A310A000A010A000AEA0A020A320A000A010A000AE40A020AF1
S1230540280A000A020A000AEB0A020A330A000A010A000AEC0A020A340A000A010A000A89
S1230560ED0A020A350A000A010A000AEE0A020A360A000A010A000AEF0A020A370A000A63
S1230580010A000AF00A020A380A000A010A000AF10A020A390A000A010A000AF20A020A6A
S12305A03A0A000A010A000AF30A020A3B0A000A010A000A050BC115820B81150E380C000C
S12305C0000A000A000A000A000A000A000A000A000A000A000A000A000A000A000A000A77
S10B05E0000A000A000A000AE7
S3050000806218
S903FFFFFE
